:02000002B0004C
:1040000000400B007C840B00000006000C00050241
:084010000401E50C00000000B2
:04401800507D0B00CC
:10401C0009480A49884208B505D0094A824202D0AB
:10402C00121A03F0A5FD0748074A0021121A03F0E3
:10403C00C7FD014808BD00BF98E40320E8830B00CE
:10404C0004E5032004E50320EDE7032070B5074EDB
:10405C00074C03F0B3F9A41BA4080025AC4200D113
:10406C0070BD56F8043B98470135F7E794830B0075
:10407C00B8830B0000F064B808B500F07DF8BDE81B
:10408C00084003F053B900F0A3BB00F0A1BB00F053
:10409C00A7BB0078B0FA80F0400970470123037089
:1040AC0070470EB403B503AB002153F8042B0193F6
:1040BC0003F0D1F802B05DF804EB03B070470000D8
:1040CC0070B588B00D460192044603F07BFA019955
:1040DC00064602A801F0B8F9002202A904A800F0D3
:1040EC00D7FE049A0D493046FFF7DBFF04A800F019
:1040FC00F7FB2544AC4207D003F064FA036814F8CC
:10410C00011B9B689847F5E703F05CFA03F079F81C
:10411C00034B01221A7008B070BD00BF647D0B0008
:10412C0050E503200EB403B503AB012153F8042B67
:10413C00019303F090F802B05DF804EB03B0704704
:10414C0008B501F0EBF901F033FA01F0E7F94FF0A3
:10415C00000101F077FA064A0649104602F0A0FA6F
:10416C0001F0DCF9BDE80840022101F028BA00BFDB
:10417C0064E50320CD400B002DE9F0437B4CA1B04E
:10418C0000F07AF92368C01AB0F5FA6FC0F0EB8032
:10419C0000F072F9206001F0C1F9754F002447F668
:1041AC007F73CDE91D3406460FCF02AD0FC5D7F88E
:1041BC0000C0C5F800C002AF0FCF07ADCDE9114468
:1041CC00CDE91344CDE91544CDE91744CDE91944A3
:1041DC00CDE91B441F9407AF0FC50FCFC5F800C026
:1041EC000CAD0FC52046C5F800C0142100F000FB33
:1041FC00044688B101231693159B14901422014692
:10420C005A4314300CAD03F0C1FC0FCD0FC42B6816
:10421C002360159B013315930A23564A11A9304686
:10422C0002F034F806461A9800F0DAFA179800F003
:10423C00D7FA149800F0D4FADDE9114304EB031516
:10424C00A54204D0204600F04BFB1034F8E711983F
:10425C00DFF82081484D00F0C3FA03F0B3F944496C
:10426C000446002211A800F07AFF119B4349324604
:10427C002046FFF757FF11A800F032FB0027FCB2D5
:10428C00A64269D924235C4304F1080004230CAA38
:10429C00FF21404400F073FF03F094F9444481463D
:1042AC000022214611A800F0F3FDBDF93230119A1D
:1042BC00334900934846BDF83030FFF733FF11A85F
:1042CC0000F00EFB01F02AF901230146224611A849
:1042DC0002F028FD119BDDF848902B606B68994526
:1042EC001BD0B9F1000F04D0D9F804300133C9F850
:1042FC0004306C687CB16368013B63605BB9236814
:10430C0020469B689847A368013BA3601BB92368B0
:10431C002046DB689847C5F8049011A801F04BFAC9
:10432C00284601F06DF8A8B1164A1749174CDFF86A
:10433C006090284602F08AF9237833B900F09CF893
:10434C00C9F8000000F034FAF6E7284601F0E2FE66
:10435C0000232370013792E703F034F921B0BDE854
:10436C00F04302F04EBF21B0BDE8F0834CE50320D2
:10437C0010E503206CE5032054E503207B7D0B0046
:10438C00A27D0B0038E5032064E5032050E50320F3
:10439C0058E703201C4B1D4A70B50024C3E90044A8
:1043AC009A60032000F080F92146012000F084F986
:1043BC0017491848184C00F055FE1849184800F0D9
:1043CC0051FE1849184800F04DFE0A257F2620465C
:1043DC0000F0F7FC04F1080001F007FD04F11400F3
:1043EC0001F003FD013D84F8206004F12404EED1BA
:1043FC000E4800F067FF0E4800F064FFBDE8704007
:10440C000C4800F0DBBF00BF04E503200000FFFFF9
:10441C00C07D0B0010E503206CE50320E57D0B004F
:10442C0024E503200A7E0B0038E5032064E5032015
:10443C005CE5032054E5032008B5024B1B689B6820
:10444C00019308BD6802030008B5024B1B68DB68CA
:10445C00019308BD6802030008B5024B1B685B683A
:10446C00019308BD1802030008B5024B1B68DB68FA
:10447C00019308BD1802030008B5024B1B685B6969
:10448C00019308BD1802030008B5024B1B689B681A
:10449C00019308BD7802030008B5024B1B681B6929
:1044AC00019308BD7802030008B5024B1B685B6FD3
:1044BC00019308BD7802030008B5024B1B689B6F83
:1044CC00019308BD7802030008B5024B1B68DB6F33
:1044DC00019308BD7802030008B5034B1B68D3F8A1
:1044EC008430019308BD00007802030008B5034B2B
:1044FC001B68D3F89830019308BD000078020300C4
:10450C0008B5034B1B68D3F8BC30019308BD000001
:10451C007802030008B5034B1B68D3F8C430019331
:10452C0008BD00007802030008B5034B1B68D3F8E4
:10453C00E030019308BD00007802030008B5034B7E
:10454C001B68D3F8E430019308BD00007802030027
:10455C0008B5034B1B68D3F8F030019308BD00007D
:10456C007802030008B5034B1B68D3F8F4300193B1
:10457C0008BD00007802030008B5024B1B685B6C99
:10458C00019308BD4802030008B5024B1B68DB6CA5
:10459C00019308BD4802030008B5024B1B685B6D14
:1045AC00019308BD4802030008B5024B1B685B6908
:1045BC00019308BD6402030008B5024B1B68DB685D
:1045CC00019308BD3C02030008B5024B1B681B6934
:1045DC00019308BD3C02030008B5024B1B685B69E4
:1045EC00019308BD3C02030008B5024B1B689B6994
:1045FC00019308BD3C02030008B5024B1B68DB6944
:10460C00019308BD3C02030008B5024B1B689B6A72
:10461C00019308BD3C02030008B5024B1B681B6CE0
:10462C00019308BD3C02030008B5024B1B681B68D4
:10463C00019308BD4C02030008B5024B1B681B69B3
:10464C00019308BD4C02030008B5024B1B685B6963
:10465C00019308BD4C02030008B5024B1B689B6913
:10466C00019308BD4C02030008B5024B1B68DB69C3
:10467C00019308BD4C02030008B5024B1B681B6A72
:10468C00019308BD4C02030008B5024B1B685B6B21
:10469C00019308BD6002030008B5024B1B681B6D3B
:1046AC00019308BD6002030008B5024B1B685B68F0
:1046BC00019308BD2002030008B5024B1B68DB6A9E
:1046CC00019308BD2002030008B5034B1B68D3F807
:1046DC008830019308BD00002002030008B5034B8D
:1046EC001B68D3F89430019308BD0000200203002E
:1046FC0008B5024B1B685B68019308BD40020300C0
:10470C0008B5024B1B689B68019308BD400203006F
:10471C0008B5024B1B68DB68019308BD400203001F
:10472C0008B5024B1B681B69019308BD40020300CE
:10473C0008B5024B1B685B69019308BD400203007E
:10474C0008B5024B1B689B69019308BD400203002E
:10475C0008B5024B1B68DB69019308BD40020300DE
:10476C0008B5024B1B681B6A019308BD400203008D
:10477C0008B5024B1B681B6B019308BD400203007C
:10478C0008B5024B1B685B6B019308BD400203002C
:10479C0008B5024B1B681B6C019308BD400203005B
:1047AC0008B5024B1B685B6C019308BD400203000B
:1047BC0008B5024B1B689B68019308BD44020300BB
:1047CC0008B5024B1B68DB6B019308BD4402030068
:1047DC0008B5024B1B681B68019308BD1C02030043
:1047EC0008B5024B1B685B68019308BD1C020300F3
:1047FC0008B5024B1B689B68019308BD1C020300A3
:10480C0008B5024B1B685B6A019308BD1C020300D0
:10481C0008B5024B1B68DB6A019308BD1C02030040
:10482C0008B5024B1B681B6C019308BD1C020300EE
:10483C0008B5024B1B685B6C019308BD1C0203009E
:10484C00002240681146FFF78BBF002240681146DA
:10485C00FFF796BF40680022FFF78ABF406800222E
:10486C0081F00101FFF774BF002340681A46194616
:10487C00FFF766BF002340681A461946FFF758BF7A
:10488C00002240681146FFF74BBF002240681146DA
:10489C00FFF736BF406800220221FFF739BF002323
:1048AC0040681A46FFF724BF024B03225A60024AA3
:1048BC001A607047D4E60320387E0B00054B0222A9
:1048CC001A60054B054A9A600020C3E90000FFF707
:1048DC00EBBE00BFE8E60320DCE603200000FFFF90
:1048EC0010B504460068FFF77BFF204610BD10B5DD
:1048FC000446006808B1FFF773FF0023C4E90133D5
:10490C00236010BD38B504460D4600680131FFF731
:10491C006FFF10B1C4E90005012038BD10B5036864
:10492C00044623B143688B4201D3012010BD2046BD
:10493C00FFF7E8FF0028F9D0A368002BF5D1226817
:10494C001370F2E737B50D46114601920446FFF796
:10495C00E5FF019A28B92046FFF7C9FF204603B0AE
:10496C0030BDA2602946206803F002F92268A368D2
:10497C000021D154F2E7002313B5C0E900330446FB
:10498C008360037341B10846019103F061F9019909
:10499C0002462046FFF7D6FF204602B010BD38B5C0
:1049AC00054600680C4668B16A688B689A4207D362
:1049BC00096803F045F9A368AB600023A36038BD18
:1049CC00FFF70EFF23682B6063686B60A368AB6016
:1049DC000023C4E90033F1E710B50023C0E900332C
:1049EC00044683600373FFF7DAFF204610BD88424C
:1049FC0010B5044605D00B682BB18A681946FFF731
:104A0C00A1FF204610BDFFF772FFFAE710B5002397
:104A1C000446C0E9003383600373FFF7E8FF2046C8
:104A2C0010BD13B5044659B10846019103F010F9B5
:104A3C00019902462046FFF785FF204602B010BDC3
:104A4C00FFF755FFF9E770B505460E4609B900208A
:104A5C0070BD6AB1846814442146FFF75FFF0028DB
:104A6C00F5D02868AB683146184403F0E9F8AC601F
:104A7C000120EDE707B500238DF80410012201A9F0
:104A8C008DF80530FFF7DFFF03B05DF804FB02681B
:104A9C000B46096862B141B9806860B11078704703
:104AAC00986840B1097848427047104603F0BEB888
:104ABC000029F5D10846704708B582688B689A4280
:104ACC0005D1FFF7E4FFB0FA80F0400908BD0020E3
:104ADC00FCE770477047704770470000064B9942DF
:104AEC0010B500F10C0405D0084602F019FF00289F
:104AFC0008BF0024204610BDDC800B00064B9942F9
:104B0C0010B500F10C0405D0084602F009FF00288E
:104B1C0008BF0024204610BDDC800B00064B9942D8
:104B2C0010B500F10C0405D0084602F0F9FE00287F
:104B3C0008BF0024204610BDDC800B0010B5682196
:104B4C000446FFF7A4FA204610BD10B528210446F0
:104B5C00FFF79DFA204610BD10B530210446FFF733
:104B6C0096FA204610BD6821FFF791BA2821FFF76D
:104B7C008EBA3021FFF78BBAF0B50025EC1C8C42B5
:104B8C000DD86E1C445D875D974205D12644B14219
:104B9C0005D31D60601CF0BD01342544EEE70020F8
:104BAC00F9E70000024A03490A20FFF76DBD00BF78
:104BBC0075440B006C7E0B0030B40D4611461A4642
:104BCC00036809682868D3E90043A44630BC6047F1
:104BDC00012A38B5044602D10B68236003E0022A8F
:104BEC0003D0032A0DD0002038BD08200D68FFF734
:104BFC004AFA03460028F0D095E8030083E8030046
:104C0C00EBE700680028EED00821FFF740FAEAE74E
:104C1C0010B5836804462BB1032201469847002344
:104C2C00C4E9023310BD10B5836804462BB10322CE
:104C3C00014698470023C4E9023310BD10B5002388
:104C4C008AB02022CDE902230446084A0092084982
:104C5C0002AA0120FFF720FD2068064900880023E6
:104C6C0022460AB0BDE81040FFF74ABC8E7E0B000E
:104C7C00837E0B0055680B0010B5013802EB410127
:104C8C0010F8013F1B0903F13004392C88BF03F1E4
:104C9C00370402F8024B037803F00F0303F13004DE
:104CAC00392C88BF03F13704914202F8014CE7D14B
:104CBC0010BD10B58368044613B103220146984712
:104CCC00204610BD10B504465830FFF7F2FF04F132
:104CDC004800BDE81040FFF703BE10B54368013B28
:104CEC000446436063B903689B689847A368013B1B
:104CFC00A3602BB923682046DB68BDE81040184739
:104D0C0010BD38B503688B4205460C4608D011B16E
:104D1C004B6801334B60286808B1FFF7DEFF2C604D
:104D2C0038BDA0F13003DAB2092A01D81846704711
:104D3C00A0F16103052B01D857387047A0F141034E
:104D4C00052B94BF37384FF0FF30704710B5002358
:104D5C000370044B04461868FFF716FC01232370FC
:104D6C00204610BDF0E6032010B5037804461BB1B5
:104D7C00024B1868FFF710FC204610BDF0E603202C
:104D8C0082B00346086849686A4603C26A4603CA89
:104D9C0018601846596002B0704708B582798B7953
:104DAC009A4206D1062202F0D3FEB0FA80F04009F6
:104DBC0008BD0020FCE74FF0FF3303608380002028
:104DCC00704708B50246002101604160FFF7F3FF10
:104DDC009171104608BD10B5431D01391C7801F8BE
:104DEC00014F834203F1FF33F8D110BD70B5144667
:104DFC0088B01A460D46002948D0A4B101A9FFF786
:104E0C00EAFF9AB103AA062101A8661EFFF734FF38
:104E1C00112E28BF1126324603A9284602F0A8FEFF
:104E2C000023AB55741C204608B070BD03AA0121A9
:104E3C0001A8FFF721FF3A260DF10F0201210DF118
:104E4C0005008DF80E60FFF717FF0DF1120201211E
:104E5C000DF106008DF81160FFF70EFF0DF1150234
:104E6C0001210DF107008DF81460FFF705FF06AA6C
:104E7C00012102A88DF81760FFF7FEFE8DF81A606D
:104E8C000DF11B0201210DF10900BEE70C46CAE72A
:104E9C0010B586B0044613460846122201A9FFF746
:104EAC00A5FF01A92046FFF766FD204606B010BD00
:104EBC0010B501230361054B024603F1100153F8B1
:104ECC00044B42F8044B8B42F9D110BDEA800B0025
:104EDC000B7C13F0FD0330B50DD103610C4B024676
:104EEC0003F1100453F8045B42F8045BA342F9D1BC
:104EFC000B88838130BD0123036101F1100203464D
:104F0C0051F8044B43F8044B9142F9D1F2E700BF3E
:104F1C00EA800B0010B50B460446B1B1012A01F131
:104F2C0010020AD1014653F8040B41F8040B9342CA
:104F3C00F9D101232361204610BD411E12F8010D49
:104F4C0001F8010F9A42F9D1F3E7102202F038FE72
:104F5C00F1E738B504460D46FFF7AAFF002323619D
:104F6C00A581204638BD08B502690B699A4206D165
:104F7C00102202F0EDFDB0FA80F0400908BD0020CF
:104F8C00FCE7000001232DE9F3410361344B0C468F
:104F9C000646024603F1100153F8040B42F8040BC9
:104FAC008B42F9D144B32421204602F059FE042847
:104FBC004FF0000523D1ADF8045001AFA51C063409
:104FCC0015F8020CFFF7ADFEB0F1000812DB15F876
:104FDC00010CFFF7A6FE00280CDB023540EA081096
:104FEC00A54207F8010BEBD19DF8053033739DF802
:104FFC00043073730023336102B0BDE8F0814FF0CD
:10500C0010082421204602F02BFEA84207D8424665
:10501C000021304602B0BDE8F04102F0D1BDB8F13C
:10502C00000FE9D0605DFFF77CFE030615D400018C
:10503C0008F1FF38C7B206F808702421204602F0A8
:10504C000FFE0135A84208D9605DFFF76AFE40B239
:10505C000028A4BF384306F808000135D1E700BF8B
:10506C00EA800B0013B504460191FFF721FF20469F
:10507C000199FFF787FF204602B010BD10B500F173
:10508C000F0301391C7801F8014F834203F1FF3300
:10509C00F8D110BD2DE9F0411F468EB00D46002908
:1050AC005BD0DAB1D0F81080541EB8F1000F19D1D2
:1050BC008389CDF814805BBA05AA022101A8ADF84A
:1050CC000430FFF7D9FD042C28BF0424224605A97F
:1050DC00284602F04DFD05F80480621C10460EB007
:1050EC00BDE8F08101A9FFF7C9FF05AA7FB1102126
:1050FC0001A8FFF7C1FD242C28BF2424224605A9B2
:10510C00284602F035FD00232B55621CE6E70421EE
:10511C000DEB0100FFF7B0FD2D260DF11D02022154
:10512C0002A88DF81C60FFF7A7FD0DF122020221E9
:10513C000DF10A008DF82160FFF79EFD0DF127029D
:10514C00022103A88DF82660FFF796FD8DF82B60E1
:10515C000BAA06210DF10E00CBE70A46BEE710B5EF
:10516C008AB004460023252208466946FFF792FFC1
:10517C0069462046FFF7FFFB20460AB010BDF7B585
:10518C00054616461F460A4601ABD0E90001FFF75B
:10519C00F3FC30F002040CD0841EBC4228BF3C4609
:1051AC003EB101992B68023122461944304602F077
:1051BC00DFFC204603B0F0BD37B513460C46019218
:1051CC000A4608210546FFF7DAFF40B9019B224643
:1051DC000921284603B0BDE83040FFF7D0BF03B02B
:1051EC0030BD0000F0B50C4689B00C490546FFF700
:1051FC00C2FB1F2269462046FFF7DEFF064650B170
:10520C006C46002714F8011B2846FFF733FC10B13D
:10521C000137BE42F6D1284609B0F0BD7A7D0B00AD
:10522C0007B5022301AA1921FFF7A9FF08B1BDF8A0
:10523C00040003B05DF804FB38B54FF6FF7300258E
:10524C00044643800E22294605700571063002F093
:10525C00B7FC04F11400FFF72BFE04F12800FFF754
:10526C0027FE044904F13C00FFF785FB65652046E9
:10527C0038BD00BF7A7D0B0038B50D680446014679
:10528C0005F12800FFF76FFE40B1AB89A28A9A4264
:10529C0005D8E08A984234BF0020012038BD002098
:1052AC00FCE710B5D0E9063203EBC2029342184674
:1052BC0006D0046824888C4203F10803F6D110BD93
:1052CC000020FCE7002370B5036005466820FEF75C
:1052DC00DAFE041E04F10C0607D00123C4E90133E5
:1052EC00044B23603046FFF7A7FFC5E9006428464E
:1052FC0070BD00BF90800B0070B50C68143406466E
:10530C0005460FCC0FC523682B60304670BD0000DE
:10531C0010B503681A7886B052BB5C884FF6FF70E4
:10532C00844225D0188A30B3CDE903220592134A62
:10533C000092134ACDE901235A88ADF80C201A8A41
:10534C00ADF80E209A89ADF8102059B11A79920651
:10535C0044BF022205921B79DB0642BF059B43F03A
:10536C000103059300216846FFF7FCF806B010BD59
:10537C006FF0D100FAE76FF07700F7E70300180041
:10538C0061550B00F8B50026066005462820FEF78F
:10539C007AFE041E04F10C070AD00123C4E9013380
:1053AC00054B23603846FFF783FD266284F82460A2
:1053BC00C5E900742846F8BDAC800B0070B500251B
:1053CC00056006463020FEF75EFE044688B10123D8
:1053DC00C0E90133094B03604FF6FF7383810E3034
:1053EC00FFF7EFFCC4E90655C4E90855C4E90A55B2
:1053FC00A57574600C343460304670BDC8800B00E9
:10540C0013B5044601A8FFF7A1FC23681C884FF6CE
:10541C00FF73E41A01A818BF0124FFF7A5FC20466E
:10542C0002B010BD37B505460C4601A8FFF78EFC3F
:10543C002A682368C2F802306368C2F8063001A8F3
:10544C00FFF792FC03B030BD37B50D46044601A8FA
:10545C00FFF77CFC2A68D2F802302360D2F80630C1
:10546C00636001A8FFF780FC204603B030BD30B567
:10547C00054687B00C4601A8FFF768FC2A6823682C
:10548C0012881B889A420DD1294602A8FFF7DCFF2F
:10549C00214604A8FFF7D8FF04A902A8FFF77DFC5A
:1054AC00044600B9002401A8FFF75EFC204607B0B3
:1054BC0030BD000010B504466420FEF7E4FD68B171
:1054CC000023C0E90033C0E90233C0E90433C0E96A
:1054DC0006330362C362C363C364C365206020B92F
:1054EC000A4A0B490A20FFF7CFF80020FEF7CCFF41
:1054FC0020B1064A07490A20FFF7C6F8216806487A
:10550C000022FFF725F8204610BD00BF75440B00A4
:10551C006C7E0B00AA7E0B00295F0B0010B50A4CA9
:10552C002378BFF35B8FDB070CD42046FEF7B1FD6D
:10553C0040B10648FFF7BEFF2046FEF7AFFD04481A
:10554C0002F000FB014810BDECE60320F4E603205A
:10555C002D580B0030B50368093B012B8DB0044668
:10556C000D4611D8FFF7DAFFA1880068FFF799FE06
:10557C00034658B92022CDE904200B4A00920B496E
:10558C0004AA3220FFF788F80DB030BD6A6D002AEE
:10559C00FAD0D4E9032105F14C00CDE90312AC6D2E
:1055AC0004AA03A9A047EFE7EC7E0B00837E0B0057
:1055BC0008B50020FEF768FF00EAE07008BD084659
:1055CC000021FEF769BF000070B5044618300E4686
:1055DC001546FFF71DFB04F12800FFF724FBC4E977
:1055EC000365002221460348FEF76EFF0028A8BF82
:1055FC00606970BD916F0B0010B504464069FFF7F0
:10560C00EFF8A068FFF7ECF8204610BD002247F633
:10561C007F71C0E90022C0E90222C0E90422C0E97E
:10562C000E22C0E91022C0E91222C0E91422C0E9FE
:10563C001622C0E91822C0E91B2202620263A0F8FC
:10564C006810704730B585B0002410230D46ADF8B6
:10565C000230214603236846ADF80030CDE9014401
:10566C000394FEF729FF214668468DF80C50FEF78F
:10567C001BFF05B030BD70B5D0E90053044605EBF7
:10568C000316AE4204D02846FFF72AF91035F8E786
:10569C002068FFF7A5F8204670BD10B504460068D9
:1056AC00FFF79EF8204610BD70B50446C06DFFF79D
:1056BC0097F8206DFFF794F804F1380504F14400D5
:1056CC00FFF7EBFF2846FFF7D6FF04F12800FFF7A2
:1056DC00F0FA04F11800FFF7ECFAD4E90053242691
:1056EC0006FB0356AE4204D02846FFF785FF24354F
:1056FC00F8E72068FFF774F8204670BD38B5141E23
:10570C004368054602DB62189A4200DD5C1A2A687F
:10571C00501801191A44521A02F038FA6A68121B0E
:10572C006A6038BD38B500230446836008200D46F6
:10573C00FEF7A9FC18B12B6803606B684360034B40
:10574C00E360034B2060A360204638BDC54B0B00C3
:10575C00DD4B0B000B68036013B15A6801325A60C1
:10576C00704710B551F8043B044640F8043BFFF772
:10577C00F1FF23680BB9FFF715FA204610BD10B5E1
:10578C0051F8043B044640F8043BFFF7E3FF204686
:10579C0010BD10B551F8043B044640F8043BFFF72C
:1057AC00D9FF204610BD10B50446006808B1FFF7BC
:1057BC0094FA204610BD10B504460430FFF7F3FFF1
:1057CC00204610BD70B5D0E90053044605EBC30666
:1057DC00AE4204D0281DFFF7E6FF0835F8E7206835
:1057EC00FEF7FEFF204670BD70B5D0E900530446AD
:1057FC0005EBC306AE4204D0281DFFF7D4FF0835D5
:10580C00F8E72068FEF7ECFF204670BD10B50446A3
:10581C002430FFF7E9FF04F11800FFF7D3FF10BDA8
:10582C0070B5174B1C6854B304F15400FFF741FAE0
:10583C0004F14400FFF73DFA04F13400FFF739FAA4
:10584C0004F12400FFF735FAD4E9065305EBC3063F
:10585C00AE4204D0281DFFF7A6FF0835F8E7A06973
:10586C00FEF7BEFF04F10C00FFF7BEFF2046FFF76A
:10587C00A9FF20466421BDE87040FEF708BC70BD4E
:10588C00F4E60320826810B50AB902F045F8BDE8C9
:10589C001040C36818472DE9F0470023C0E90033D6
:1058AC008360D1F80480984505460F464ADD4FEADF
:1058BC000810FEF78DFF0646002843D0D5E90041BD
:1058CC00A04204EB011A16D9504515D2AAF1100AC0
:1058DC00A4F11009AAEB04040444D1451DD01CB159
:1058EC0051462046FFF778F85046FEF7F9FFAAF12B
:1058FC00100A103CF1E710D0B146A2450DD0B9F119
:10590C00000F03D021464846FFF766F82046FEF705
:10591C00E7FF103409F11009EFE72868FEF760FF84
:10592C00C5F808802E60D7E9004304EB0318A045A6
:10593C0006D021463046FFF769F810341036F6E7EA
:10594C007B686B602846BDE8F08730B58DB00C469F
:10595C0000F1380101A8FFF79EFF029B002B2FDD01
:10596C0004F1140104A8FFF73DFC04F1080108A898
:10597C00FFF738FC0A9A069B13431FD0DDE901455B
:10598C0004EB0515AC4219D004A92046FFF794F896
:10599C0060B1012408A8FEF7A3FF04A8FEF7A0FF3E
:1059AC0001A8FFF768FE20460DB030BD204608A9BF
:1059BC00FFF782F810340028E4D0EAE70024E9E786
:1059CC000124EDE7F8B50023C0E9003383604F688C
:1059DC009F4205460E463EDDF800FEF7F9FE0446F2
:1059EC00C8B3D5E90003844200EBC30310D99C4231
:1059FC000FD2083B1A1AA0F1080C22449C4518D06F
:105A0C001AB11968116059685160083B083AF5E7FA
:105A1C000FD0014622468B420BD03AB1D1F800C0D0
:105A2C00C2F800C0D1F804C0C2F804C00831083272
:105A3C00F1E7FEF7D5FE2C60AF60D6E9003103EB41
:105A4C00C100984206D01A6822605A686260083316
:105A5C000834F6E769602846F8BD70B504460020A6
:105A6C00C4E90000A0604E6886420D4612DD71004C
:105A7C00FEF7BEFE70B12060A660D5E9003203EBE4
:105A8C0042029A4204D033F8021B20F8021BF8E7BA
:105A9C006B686360204670BD10B50379044623B96A
:105AAC000368186808B1FEF79BFE204610BD10B5C0
:105ABC000379044623B90368186808B1FEF790FE11
:105ACC00204610BD2DE9F043D0F86C808FB00F4606
:105ADC00B8F1000F72D0056F002D6FD001F11409D1
:105AEC001F230022FF214846FFF749FB0837FF23FD
:105AFC000446002219463846FFF741FBAC420646E5
:105B0C0006D0AE4230D0002420460FB0BDE8F08362
:105B1C002046FEF75DFE03AB04930023044603907E
:105B2C008DF8143070B92023CDE90630244B009346
:105B3C002449034606AA3220FEF7AEFD04A8FFF75F
:105B4C00ABFFE1E70246FF212B464846FFF717FB68
:105B5C0003982A46414601F0FBFF18B104A8FFF751
:105B6C009BFFCEE70124E9E72846FEF731FE00242F
:105B7C0003AB0646039004938DF8144078B92023A8
:105B8C00CDE906300E4B00930E49034606AA32208F
:105B9C00FEF782FD344604A8FFF789FFB4E70246FE
:105BAC00FF212B463846FFF7EAFA03982A4641466E
:105BBC0001F0CEFF0028EED10124ECE70124A3E78D
:105BCC00047F0B00837E0B0038B50D1E0446006865
:105BDC0003DDFEF70DFE18B938BDFEF701FE0020FF
:105BEC002060A5600120F7E708B583688B4202DAD4
:105BFC00FFF7EAFF08BD0120FCE738B50023C0E938
:105C0C00003383600D4649689942044610DDFFF766
:105C1C00DBFF68B1D5E9003122681944994205D0FF
:105C2C000AB11878107001330132F7E76B686360C2
:105C3C00204638BD38B50B6803604B68436004469A
:105C4C000D4608300831FFF7D8FF05F1140104F1B7
:105C5C001400FFF7D2FF95F8203084F8203020464E
:105C6C0038BD1FB5044601A8FFF7C7FF019B029A78
:105C7C002068236063686260039A0293A368A26041
:105C8C0001900393FEF7ACFD04B010BD2DE9F0417B
:105C9C000F4641681D461944836899420446904654
:105CAC0012DC266862683E44D21B3146701901F042
:105CBC006DFF2A464146304601F05AFF63682B447B
:105CCC0063600120BDE8F081FFF77EFF0028E8D17A
:105CDC00F8E713460A46002110B50446416002B1AC
:105CEC000BB9002010BDFF2B28BFFF23FFF7CEFF01
:105CFC000028F7D06068F5E7F8B50D46D0E9011338
:105D0C009942044616460BDA276862687919521BC9
:105D1C00481C01F03BFF7E55636801336360F8BD9E
:105D2C000131FFF751FF0028EED1F8E70A46416830
:105D3C00FFF7E2BF2DE9F74304461D460F4601ABC2
:105D4C0090460A46D0E900019DF82890FEF714FF12
:105D5C00AE1C63680246B9F1000F26D128B3334458
:105D6C001B1AFF2B09D801992046FFF7C7FC616865
:105D7C0020463144FFF738FF18B9606803B0BDE81E
:105D8C00F0836A1C0199D2B22046FFF7B5FF019946
:105D9C003A4601312046FFF7AFFF01992B464246A8
:105DAC0002312046FFF772FFE7E7F118FF29E4D82C
:105DBC002046FFF719FF0028DFD0691CC9B2204626
:105DCC00FFF7B4FF39462046FFF7B0FF61682B465A
:105DDC004246E6E730B49DF808501AB1029530BC43
:105DEC00FFF7A8BF406830BC70471FB50023C0E95F
:105DFC00003383600622009301238DF80F2019468F
:105E0C000DF10F020446FFF7E5FF204604B010BD6C
:105E1C008842F8B504460D46164614D9904213D262
:105E2C00A2F10806751AA1F108072C44B74218D044
:105E3C001CB131462046FFF7ACFC301DFFF7B3FC1C
:105E4C00083E083CF2E70CD0B5420AD01CB12946FA
:105E5C002046FFF79EFC281DFFF7A5FC08350834EB
:105E6C00F2E7F8BDF7B5044646686846FFF791FCC3
:105E7C00D4E901739F4212DB0137002F29DDF800B2
:105E8C00FEF7A6FC0546F0B1D4E9001201EBC20204
:105E9C00FFF7BEFF2068FEF7A3FC2560A760236810
:105EAC00626803EBC60603EBC202314606F108003A
:105EBC00FFF7AEFF1EB169463046FFF76AFC636818
:105ECC0001336360012501A8FFF76DFC284603B080
:105EDC00F0BD0025DEE7F8B5D0E9004305460F46D6
:105EEC0004EBC306A64205D039462046FFF7BFFA9D
:105EFC0008B114B9F8BD0834F4E7201DFFF753FCC2
:105F0C00D5E9003204F1080103EBC2022046FFF789
:105F1C007FFF6B68013B6B60ECE700002DE9F04103
:105F2C0005468EB003A80C46FEF710FF2E68F31E34
:105F3C000D2B3CD8DFE813F00E0053003B00D100D2
:105F4C003B003B003B003B003B009B009B009B004D
:105F5C009B009B0004A8FFF731FA049BAA891A80C6
:105F6C006968049808310230FEF70AFF04A906A8F4
:105F7C00FFF70FFC06A904F11800FFF773FF0546A5
:105F8C0007A8FFF710FC20230693B5B95D4B5E49BB
:105F9C00009332202B4606AA0795FEF77DFB049B47
:105FAC0029461888FEF7A2FA05A8FFF7FCFB03A800
:105FBC00FEF7DAFE0EB0BDE8F081544A00920023E1
:105FCC005149079306AA0120FEF766FBE36A002BF2
:105FDC00EAD004A904F12400FFF754FCE4E7A989F2
:105FEC002046FFF75EF906460028E0D00568D5E9A3
:105FFC0006324FF6FF71298003EBC2029A4203D09E
:10600C0053F8080B4180F9E7D5E9037307EBC30894
:10601C00B84504D0381DFFF7C6FB0837F8E7002356
:10602C002B61D5E9067307EBC308B84504D0381DBE
:10603C00FFF7B9FB0837F8E70023EB61AB72E36BB2
:10604C0023B1314604F13400FFF71CFC002320225D
:10605C00CDE906232E4A00922B4906AA0120FEF711
:10606C001BFB314604F11800FFF735FF9FE7A989A8
:10607C002046FFF716F9002899D0E36C002B96D038
:10608C0000230D2EADF8163001D0102E17D10023A1
:10609C0069681A4606258DF8153004918DF8142080
:1060AC000690DDE9040109AB8DF81C60089583E8C6
:1060BC000300236D06A904F14400984777E70F2EDF
:1060CC0001BF2B7A696803F0010208250FBFC3F3E7
:1060DC0040031A4619461D46DDE7A9892046FFF7FD
:1060EC00E0F8014600283FF462AFE36D002B3FF46B
:1060FC005EAF6B68069306AA236E04F154009847B2
:10610C0055E700BF1F7F0B00837E0B00457F0B0004
:10611C00627F0B0013B50446FFF772F9D0B1236808
:10612C0000211888FEF7E2F9002811DB01A8FEF720
:10613C000DFEFFF7F3F9006821461830FFF7CBFE90
:10614C0023684FF6FF721A8001A8FEF70DFE00209F
:10615C0002B010BD6FF0D100FAE738B50D1E044641
:10616C00006805DD14216943FEF742FB18B938BD00
:10617C00FEF736FB00202060A5600120F7E72DE933
:10618C00F8430024C0E90044846088464968A14271
:10619C0007461ADDFFF7E1FFB8B1D8E900934FF0DD
:1061AC00140CD7F800E00CFB039C09EB0405AC4580
:1061BC0008D01EEB04061FBF0FCD0FC62B68336033
:1061CC001434F2E7D8F804307B603846BDE8F88325
:1061DC0030B585B0044601A80D46FFF75CFB019A6B
:1061EC0023682260029A019363686260039A0293A7
:1061FC0001A8A368A2600393FFF73DFA05F10C0117
:10620C0001A8FFF7BCFF019AE368E260029A0193D0
:10621C0023692261039A029301A863696261039363
:10622C00FFF73BFA05F1180101A8FFF7CBFB019B27
:10623C00029AA069A361E369E261039A0293236A5B
:10624C00226203930190FEF7CBFA05F1240101A819
:10625C00FFF703FC019B029A606A6362A36AA26265
:10626C00039A0293E36AE26203930190FEF7B8FA91
:10627C0095F9303084F8303095F9313084F831307C
:10628C006B6B6363AB6BA36305B030BD30B5A1B072
:10629C001D46019114469AB193B103A8FFF7B6F9C4
:1062AC00019911A8FFF794FF21462A4603A8FFF78E
:1062BC008BF9044603A8FFF7F7F9204621B030BD4F
:1062CC00004CFAE7F2FEFFFF2DE9F843D1E9008715
:1062DC0045688368E9199942044617DC142326683B
:1062EC0062685D4303FB07F95A432E44521B314647
:1062FC0006EB090001F04AFC4A464146304601F0E3
:10630C0037FC63683B446360BDE8F883FFF725FF07
:10631C000028E3D1F8E782B070B50C4604A981E8F7
:10632C000C00D0E901139942054617DA142303FB3C
:10633C0004F16A682C685A430C44521AE01821463E
:10634C0004AE01F023FC0FCE0FC4336823606B68DE
:10635C0001336B60BDE8704002B070470131FFF74C
:10636C00FCFE0028E2D1F5E72DE9F04F002493B0B4
:10637C00931EC0E90044DBB205460F46904684608C
:10638C00059379688C4272DA386807AB4246091B70
:10639C002044FEF7F1FB0646002868D0059B012B34
:1063AC002FD8A0F1020B4FEA5B0B4FF000090DF157
:1063BC003C0A079BCB45234455D03A6803EB490371
:1063CC00134408A8D9789B7843EA0121FEF7C1FD54
:1063DC000DF1200EBEE80F000DF1340CACE80F00EF
:1063EC00DEF80030CCF800309AE807008DE80700A2
:1063FC000DAB0CCB69682846FFF78DFF09F101093D
:10640C00D7E7A8F10603012B2DD8A0F1020B4FEA18
:10641C001B1B4FF000090DF13C0ACB45079B22D00A
:10642C0002333968234403EB09130122194408A8E9
:10643C00FEF770FD0DF1200EBEE80F000DF1340CCF
:10644C00ACE80F00DEF80030CCF800309AE807001A
:10645C008DE80700DDE90D2369682846FFF75BFF2F
:10646C0009F10109D9E7079B1C44344489E7284604
:10647C0013B0BDE8F08F30B5002385B0C0E9003310
:10648C0083600446022201A80D46FFF76DFF01A9A7
:10649C002046FFF719FF01A8FFF7FFF80222294653
:1064AC0001A8FFF761FF01A92046FFF70DFF01A826
:1064BC00FFF7F3F80322294601A8FFF755FF01A9BE
:1064CC002046FFF701FF01A8FFF7E7F8062229464F
:1064DC0001A8FFF749FF01A92046FFF7F5FE01A827
:1064EC00FFF7DBF80722294601A8FFF73DFF01A9BA
:1064FC002046FFF7E9FE01A8FFF7CFF8204605B0CC
:10650C0030BD2DE9F04F8BB00C4600F1440101A8D1
:10651C00FFF735FE029B002B4ADD04F1140104A8A1
:10652C00FFF7A9FF04F1080107A8FFF7A4FF059DD9
:10653C00089E002D01DC002E38DD019A029FDDF84B
:10654C001080DDF81C90142303FB072703FB058543
:10655C0003FB06969246BA4528D0C346AB4515D0E8
:10656C0059465046FEF7FFFC0BF1140B044600286D
:10657C00F4D007A8FFF791F804A8FFF78EF801A84C
:10658C00FFF78BF820460BB0BDE8F08FCB46B34538
:10659C0009D059465046FEF7E6FC0BF1140B0446A5
:1065AC000028F4D0E5E70AF1140AD4E70024E0E768
:1065BC000124E4E713B50B460246D0E900016C4612
:1065CC0084E8030093E8030082E8030094E80300E6
:1065DC0083E8030002B010BD38B505460C46FFF742
:1065EC00E9FFAB68A268AA60A360EB68E268EA60A6
:1065FC00E36038BD30B585B0002302938B68054647
:10660C000C4633B1022268469847E3680393A368AB
:10661C00029329466846FFF7DFFF6846FEF749FB01
:10662C0005B030BD38B50D4601684B6D044623B13D
:10663C0028684C314C30FFF7DDFF20462B6840F8C2
:10664C00043B6968FEF75DFB204638BD2DE9F0433D
:10665C00044687B068460E461746FEF777FB23685C
:10666C00D3E9064304EBC3084445A14616D02146A2
:10667C0001A8FEF741FE394601A8FEF774FC083468
:10668C0005460028F0D049463046FFF7CBFF684658
:10669C00FEF76AFB284607B0BDE8F0830025F6E755
:1066AC0010B504688AB04C34B9B1CDE9001202A817
:1066BC006946FFF737F8002306A902A80893FFF7ED
:1066CC008BFF214606A8FFF787FF06A8FEF7F1FA15
:1066DC0002A8FEF7EEFA0AB010BD0491EBE788426F
:1066EC00F8B504460D46164614D9904213D2A2F1C1
:1066FC000806751AA1F108072C44B74218D01CB132
:10670C0031462046FFF73BF8301DFFF74CF8083EAA
:10671C00083CF2E70CD0B5420AD01CB12946204601
:10672C00FFF72DF8281DFFF73EF808350834F2E77F
:10673C00F8BD70B50E1E054611DDF000FEF748F8E9
:10674C00044658B1D5E9001201EBC202FFF7C7FFAE
:10675C002868FEF745F82C60AE60012070BD00245F
:10676C00F6E72DE9F0410023C0E9003383600D46C4
:10677C0049689942044613DDFFF7DBFF80B1D5E988
:10678C000063276806EBC308B04507D01FB131463C
:10679C003846FEF7F4FF08360837F5E76B68636098
:1067AC002046BDE8F08137B50D46044601A8FEF73A
:1067BC00CDFA296820460C31FFF7D3FF01A8FEF76C
:1067CC00D3FA204603B030BD38B50B689B7A05462A
:1067DC000C4633B90846FEF731FA10B9236801228A
:1067EC009A7228462146FFF7DEFF284638BD73B55E
:1067FC00044645686846FEF7C2FFD4E90113994286
:10680C0010DA2368626803EBC50503EBC202294664
:10681C0005F10800FFF763FF8DB96368013363600E
:10682C00012606E001312046FFF783FF06460028CB
:10683C00E7D101A8FEF7B7FF304602B070BD69463C
:10684C002846FEF79CFFE8E72DE9F04FDFF8B890FB
:10685C00DFF8B8A093B00546884600272B68BB42EA
:10686C004ED903A8FEF78EFD1C266A68039C7E4356
:10687C0032440DF1140C131DE34614321868596898
:10688C00E646AEE8030008339342F446F6D11868A6
:10689C00CEF8000059460AA8FEF71AFB0DF1280C99
:1068AC00BCE80F000FC4DCF8003023606B68039A5F
:1068BC00334403A91B8B93826B6833445B8BD38269
:1068CC00D8F8000000F10C040AA8FEF758FF204687
:1068DC000AA9FFF78CFF04460BA8FEF764FF54B916
:1068EC002023CDE90A34CDF8009023460AAA51465C
:1068FC003220FDF7D1FE04A8FEF755FF0137ADE7B6
:10690C0013B0BDE8F08F00BF817F0B00837E0B00BE
:10691C008842F8B504460D46164614D9904213D257
:10692C00A2F10806751AA1F108072C44B74218D039
:10693C001CB131462046FEF714FF301DFEF733FF25
:10694C00083E083CF2E70CD0B5420AD01CB12946EF
:10695C002046FEF706FF281DFEF725FF08350834F4
:10696C00F2E7F8BD70B50E1E054611DDF000FDF71F
:10697C002FFF044658B1D5E9001201EBC202FFF714
:10698C00C7FF2868FDF72CFF2C60AE60012070BD9E
:10699C000024F6E72DE9F0410023C0E900338360C1
:1069AC000D4649689942044613DDFFF7DBFF80B1C1
:1069BC00D5E90063276806EBC308B04507D01FB1C3
:1069CC0031463846FEF7CDFE08360837F5E76B68DA
:1069DC0063602046BDE8F08137B50D46044601A83A
:1069EC00FEF7B4F9296820461831FFF7D3FF01A848
:1069FC00FEF7BAF9204603B030BD73B504464568BE
:106A0C006846FEF7AEFED4E90113994210DA23680A
:106A1C00626803EBC50503EBC202294605F10800C9
:106A2C00FFF776FF8DB9636801336360012606E0DA
:106A3C0001312046FFF796FF06460028E7D101A852
:106A4C00FEF7B1FE304602B070BD69462846FEF72F
:106A5C0088FEE8E7F0B585B0054601A80C46174658
:106A6C00FEF774F90023C5E90033AB602368D3E962
:106A7C00064604EBC606B44211D038682146FEF730
:106A8C00FBFB50B1214602A8FEF76BFE02A928467B
:106A9C00FFF7B3FF03A8FEF786FE0834EBE701A867
:106AAC00FEF762F9284605B0F0BD00002DE9F04371
:106ABC000B689B7A91B006460F46904633B9C0E9F5
:106ACC0000338360304611B0BDE8F08311680D7E51
:106ADC00002D58D120232A4603A8CDE90835FEF70E
:106AEC003EFB039B01932B4B2B49009308AA2B468F
:106AFC000120FDF7D1FD03A8FDF7F2FE1C23ADF834
:106B0C002230D8F800309A8AADF83820DB8AADF8FC
:106B1C003A303B68214A1888009508A9FDF7FAFC21
:106B2C00002830DB3B68D3E9064304EBC309083487
:106B3C00A4F10803994522D054F8083CDB89002BBA
:106B4C00F5D0102200210DEB0200039501F038F86E
:106B5C0054F8083CD9893B6803AA1888009513237C
:106B6C00FDF7E2FC0028E2D010AB184403A900F8B2
:106B7C00345C54F8080C3C30FDF753FFD7E7D8F8D9
:106B8C00003001221A76424639463046FFF762FF42
:106B9C0098E700BFA67F0B00837E0B00516D0B00A6
:106BAC00F0B50B689B7A85B006460D462BB901A84B
:106BBC00FFF70AFE01A8FEF705FE2B68D3E9034791
:106BCC0004EBC707BC4209D02246294601A8FFF7AF
:106BDC006DFF01A8FEF708FE0834F3E7304629469E
:106BEC00FFF7FAFE304605B0F0BD00002DE9F0438A
:106BFC00054693B0086807920F46496898460AAC58
:106C0C00414B049303C405AB4FF0000983E8030028
:106C1C00CDE90899FEF782FC3C4B0893FEF77EFC0D
:106C2C002968036809934A4604A8FDF787FC0AAE55
:106C3C00044638B12B684FF6FF721A80204613B009
:106C4C00BDE8F08339462846FEF7ECFB03A8FEF7B7
:106C5C007DF8FEF763FC0768294618373046FEF7C7
:106C6C0098FD31463846FFF7FDF807460BA8FEF7AE
:106C7C009AFD4FF020091FBB3246254B254E264965
:106C8C00009332202346CDE90A94FDF705FD3068C8
:106C9C00FDF782FC2B688DF80C40214618881F4CA0
:106CAC00FDF724FC3068FDF76FFC01238DF80C30E8
:106CBC002B684FF6FF721A8003A8FEF755F8BDE754
:106CCC0003A8FEF751F8164B00931349234632469E
:106CDC000120CDE90A94FDF7DFFCB8F1000FADD02F
:106CEC0029463046FFF75CFFDDE90A5305EBC30785
:106CFC00BD4205D028460121FEF70AFB0835F7E70F
:106D0C003046FEF771FD99E703001800295F0B0070
:106D1C00D87F0B00F0E60320837E0B00FCFEFFFF08
:106D2C00F47F0B0013B50446CDE90032FEF746FBA9
:106D3C00009B019900222046FFF758FF204602B025
:106D4C0010BD00002DE9F04F202395B00026CDE9B1
:106D5C000C36664B009305460F4633466449DFF804
:106D6C009491DFF88C81DFF890A10CAA0120FDF73B
:106D7C0093FC2B68B34240F2B58003A8FEF7A2FA4D
:106D8C0005A8FEF7FFFA4FF02A0B6B68039A0BFB72
:106D9C0006FB5B44D98B1181198C5181598C9181E3
:106DAC00988CD081D88C10821B8D5382D7E90332FA
:106DBC0003EBC2029A427DD01868C48A8C4277D306
:106DCC00848A8C4274D85968059006A8FDF799FFFF
:106DDC00DDF814C0DDF80CE0BCE80F000EF128045F
:106DEC000FC4DCF8003023602B89AEF802306B68DE
:106DFC00039C5B445B7E13F0020F6ED16B685B44AB
:106E0C005B7E580742BF237943F0040323716B6800
:106E1C005B445B7E190742BF237943F0080323715F
:106E2C006B685B445B7EDA0642BF237943F0100348
:106E3C0023716B685B4407AA5B7E9B0642BF237978
:106E4C0043F0200323716B689B440BF104039646BB
:106E5C000BF1140B186859689446ACE8030008331E
:106E6C005B456246F6D11868CCF8000071460CA858
:106E7C00FEF72EF80DF1300CBCE80F0014340FC4E3
:106E8C00DCF80030236003A90CA8FEF76AFC0CA9FF
:106E9C0007F11800FFF7B1FD04460DA8FEF783FCBF
:106EAC009CB92023CDE90C34CDF800A0234607E093
:106EBC0008337FE720240023CDE90C43CDF8009064
:106ECC000CAA41463220FDF7E7FB06A8FEF76BFC47
:106EDC0004A8FEF768FC01364BE7237943F0020364
:106EEC0023718BE715B0BDE8F08F00BF11800B004C
:106EFC00837E0B002C800B005B800B008842F8B566
:106F0C0004460D46164614D9904213D2A2F124061B
:106F1C00751AA1F124072C44B74218D01CB1314684
:106F2C002046FEF787FE3046FEF766FB243E243CE7
:106F3C00F2E70CD0B5420AD01CB129462046FEF728
:106F4C0079FE2846FEF758FB24352434F2E7F8BDC9
:106F5C00F8B50E1E054613DD242707FB06F0FDF7DA
:106F6C0037FC044658B1D5E9001207FB0212FFF7B3
:106F7C00C5FF2868FDF734FC2C60AE600120F8BD1D
:106F8C000024F6E72DE9F0439DB001AD06462846F6
:106F9C000C46FDF716FF03A8FEF727FF06A8FEF721
:106FAC0024FF30697169F28913AB03C385E80300D0
:106FBC003378B1688DF8243006A8FEF78AFEB289C2
:106FCC00716803A8FEF785FE94F968307F2B13AF28
:106FDC0003D09DF924209A425CDB94F969307F2B15
:106FEC0003D09DF924209A4254DC04F15001384618
:106FFC00FEF7E8FC149B002B52DD139E06EBC30935
:10700C00B14550D030462946FDF7C7FE08368046BC
:10701C000028F5D01398FDF7E3FBB8F1000F39D039
:10702C0029462046FEF791FCA0B329462046FFF7DF
:10703C0068FA064670B304F15C013846FEF70DFDA4
:10704C00149B002B12DD06A8FEF7EAF8804603A875
:10705C00FEF7E6F8DDE9133203EB42029A4225D043
:10706C0033F8021B884501D08842F7D11398FDF7FD
:10707C00B7FB7EB129462046FEF724FD50B1236AAA
:10708C00B3B16369139501336361636A394604F1E3
:10709C00180098472846FEF7AFFA1DB0BDE8F083FC
:1070AC004FF00108B6E74FF00008B3E70026DDE724
:1070BC00D4F83080B8F1000F07D0636901336361F5
:1070CC002946636B04F12800E3E7D4F80CC0BCF14B
:1070DC00000F25D063692269013393426361D9D8CB
:1070EC00242253432A4603CA243B0CEB03064CF8D8
:1070FC000300716006F1080003A9FEF7B2FD06A9B2
:10710C0006F11400FEF7ADFD9DF9243086F8203011
:10711C00D4E904329A42BDD34046FDF7DDF9B9E714
:10712C0095E803000DF1280888E8030003A90CA8D2
:10713C00FEF763FD06A90FA8FEF75FFD9DF824304E
:10714C008DF84830414638466668FEF773FDD4E941
:10715C000113994210DA23686168242202FB063677
:10716C0006F1240002FB01323146FFF7C7FE86B957
:10717C0063680133636005E001312046FFF7E8FEE8
:10718C000028E8D13846FEF737FA4046FEF734FAC5
:10719C0080E739463046FEF74DFDE9E7024800230B
:1071AC000360FDF7E9B900BFF0E60320F8B5064629
:1071BC000D468F180024BD420CD0336815F8011B06
:1071CC009B6830469847031E01DB1C44F3E7002CF8
:1071DC0008BF1C462046F8BD13B50446084659B1F5
:1071EC00019100F035FD23680199DB6802462046C9
:1071FC0002B0BDE81040184702B010BD03689B6890
:10720C00184738B50D210546FFF7F8FF0A2104464B
:10721C002846FFF7F3FF204438BD30B58BB0002370
:10722C00012A8DF8243098BF0A2209AC0D46B1FB17
:10723C00F2F101FB125303F0FF03092B94BF30331F
:10724C003733DBB2AA4204F8013DEFD92146FFF7F0
:10725C00C3FF0BB030BD2DE9F04186B000AF054641
:10726C000E46381D142114463B60FDF7C9FA13284D
:10727C000ED8391D2846FFF7AFFF04461EB128462D
:10728C00FFF7BFFF044420461837BD46BDE8F08128
:10729C0000F1080323F00703E846ADEB030D22468B
:1072AC00411C3B686846FDF7ABFA69462846FFF778
:1072BC0093FF0446C546E1E7014B024A1A6070474A
:1072CC00F8E60320FA800B00024B1A68024B1A6096
:1072DC00704700BF98E40320FCE60320014B00221A
:1072EC009A60704700E70320014B1860704700BF9D
:1072FC009CE4032008B50B4B43B100F063F9036821
:10730C001B699847002801DDAFF30080064B43B1A1
:10731C0000F0DCFA03681B699847002801DDAFF325
:10732C00008008BD000000000000000008B5FFF759
:10733C00E1FFFDF7A1F8014B186008BD58E70320E9
:10734C000548064A064908B5121A00F011FC054B0F
:10735C00054A1A6008BD00BF00F4032004F40320A2
:10736C00E4830B0000F403201E1C279A07B50023AE
:10737C0000931A466FF07701FDF7B0F903B05DF892
:10738C0004FB000007B543880A2B08D0502B0BD107
:10739C00094B1B684BB103B05DF804EB1847FFF7C2
:1073AC00E5FF03B05DF804FB002300931A466FF071
:1073BC007701FDF793F9F4E714E7032010B51248B1
:1073CC000021FDF735FA114B1A68114B9A42114BFB
:1073DC000CBF012200221A7001D0FFF7B1FFFDF79C
:1073EC003BF8044600F0F4FB0B4B13B12046AFF313
:1073FC00008000210848FDF7E3F9BDE8104007487C
:10740C000021FDF761B900BFF5720B0000F40320F9
:10741C001E1C279A10E703200000000091730B003C
:10742C00704710B518210446FCF731FE204610BDFC
:10743C00F0B5037D062B8DB00E4600F104074FF01E
:10744C00000412D000F1080515F8011D0A2230467F
:10745C00FFF7E3FEAF42044419D0002CF4D02E21E8
:10746C003046FFF7CBFE0444EEE72F236A4639463D
:10747C000A208DF80040FDF797F8684600F0E8FB0D
:10748C0033680246DB686946304698470446204616
:10749C000DB0F0BD10B5054B0446112240F8043B6D
:1074AC00002100F08DFB204610BD00BF24810B0095
:1074BC000346074A10B543F8042B01F1100251F8AA
:1074CC00044B43F8044B9142F9D10A781A7010BD61
:1074DC0024810B0010B59DF8084044EA032343EACD
:1074EC00024242EA016104234160037510BD0000B1
:1074FC0007B5064B0360CB7800938B784A780978F4
:10750C00FFF7E8FF03B05DF804FB00BF24810B001C
:10751C00417470477047704708B50021007CFDF737
:10752C009BF840EAE07008BD08B50121007CFDF72E
:10753C0093F840EAE07008BD08B5007CFDF784F8CC
:10754C0020EAE07008BD08B5007CFDF775F820EA6C
:10755C00E07008BD13B50446007C0191FDF774F88A
:10756C000028019901DC607C20B1207CFDF77CF8BF
:10757C0020EAE07002B010BD007CFDF77DB810B5BC
:10758C0014210446FCF783FD204610BD10B54FF4C2
:10759C007A73044608460021C4E90113044B2360A6
:1075AC000123207463741146FDF73EF8204610BD8C
:1075BC0038810B0010B514220446002100F000FBAA
:1075CC00204610BD10B50F4C88B003A8FFF7F2FF92
:1075DC002178BFF35B8F11F001010FD1204601918F
:1075EC00FCF757FD019948B103AA0748FFF7CEFFF6
:1075FC002046FCF753FD054800F0A4FA024808B0F9
:10760C0010BD00BF18E703201CE7032021750B00F9
:10761C0070474174704708B5007CFCF7F5FF20EA11
:10762C00E07008BD08B5007CFCF7CEFF20EAE070E6
:10763C0008BD08B5007CFCF7D7FF40EAE07008BD38
:10764C0008B5007CFCF7C8FF40EAE07008BD007C80
:10765C00FCF7D2BF37B5457C04462DB1207C03B076
:10766C00BDE83040FCF7A8BF007C0191FCF7CCFFD3
:10767C0000280199F2DC284603B030BD10B5142166
:10768C000446FCF704FD204610BD000010B54FF475
:10769C007A730446084611460022C4E90123044BC0
:1076AC002360012320746374FCF7B6FF204610BDE1
:1076BC0068810B00002240681146FDF731B80022AA
:1076CC0040681146FDF74CB8002240681146FDF7A2
:1076DC0057B840680022FDF74BB84068002281F093
:1076EC000101FDF735B8002340681A461946FDF72D
:1076FC0027B8002340681A461946FDF719B800222E
:10770C0040681146FCF7FCBF406800220221FCF7E0
:10771C00FFBF002340681A46FCF7EABF024B042265
:10772C005A60024A1A60704730E7032098810B00B8
:10773C00002340681A46FCF7DBBF40680022022198
:10774C00FCF7E6BF002240681146FCF7D9BF0022C7
:10775C0040681146FCF7E4BF002340681A461946FE
:10776C00FCF7E6BF002340681A461946FCF7E8BF51
:10777C0040680021FDF70CB840680021FDF710B8F7
:10778C004068002281F00101FCF7E2BF4068002252
:10779C00FCF7EEBF002240681146FCF7F1BF002257
:1077AC0040681146FCF7DCBF2DE9F04395B0144658
:1077BC000D460746FFF76EFE00211C220DA8009116
:1077CC0000F0FEF940230C9320466B460CAA0021D6
:1077DC00FCF73AFE044600284BD1024601216868AA
:1077EC00FCF79EFF0221804622466868FCF798FF52
:1077FC00009E81462146002E3BD0002939D173686A
:10780C00022B03D00A2B11D0F669F4E7B8F1000F64
:10781C00FAD0716906A8043107ADFFF769FE0FCDE8
:10782C003C1D0FC42B6823704146EDE7B9F1000FE6
:10783C00EAD07469102201A800F0C2F906238DF871
:10784C00143001AD04F108031834186859682A463D
:10785C0003C20833A3421546F7D101A906A807AD08
:10786C00FFF726FE0FCD3C1D0FC42B682370494635
:10787C00CAE70098FCF7E0FD384615B0BDE8F08388
:10788C00024B034A1A6000225A60704738E7032003
:10789C00D4810B007047000038B5044614252A46E5
:1078AC00002100F08DF925804025074925812846C7
:1078BC00258200F02FF804496060284600F02AF871
:1078CC00E060204638BD00BF08820B0030B50E4D7D
:1078DC002978BFF35B8F11F0010487B011D12846D2
:1078EC00FCF7D7FB68B101A8FFF7D6FF01AA214628
:1078FC000648FFF7CBFE2846FCF7D0FB044800F007
:10790C0021F9024807B030BD40E7032044E70320CB
:10791C00A1780B00FCF7B9BB08B5FCF779FF0000A8
:10792C00014900F0F9B800BF24820B007FB5002498
:10793C001023CDE90234036815469E6912686B4624
:10794C00CDE90044B0479DF8043003F00603062B44
:10795C0003BF009B2B600120204604B070BD009833
:10796C00904214BF012006207047000010B5034B55
:10797C000360044600F0CDF8204610BD64820B0075
:10798C0010B50446FFF7F2FF20460821FCF77FFBF9
:10799C00204610BD2DE9F0411F46DDE90834DDF825
:1079AC00188098450646154607D1079900F0B4F89B
:1079BC0018B165710020BDE8F0813946304600F001
:1079CC00ABF80028F6D00123C4F800802571A37110
:1079DC00F0E738B515461C4600F09EF820B1082398
:1079EC00E36006232560237138BD73B505460C464C
:1079FC0001921E4600F090F850B9032E08D8236867
:107A0C00019A5B692946204602B0BDE870401847D0
:107A1C0002B070BD10B5034B03600446FFF7A6FF20
:107A2C00204610BDC4820B0010B50446FFF7F2FFD0
:107A3C0020460C21FCF72BFB204610BDF7B5089F08
:107A4C00974205460E4614460AD0A8680268089765
:107A5C00156A31462246AC4603B0BDE8F04060479B
:107A6C001946019300F058F8019B0028EDD0062030
:107A7C0003B0F0BD2DE9F14F0D461946DDE90A4B77
:107A8C00DDE90CA681461746984600F045F890B102
:107A9C00002D3460377109DB61198A450CBF062152
:107AAC000121B171002001B0BDE8F08F0235F9D190
:107ABC000123B371F6E7544506D15946484600F008
:107ACC002BF808B17771EDE7D9F808000368CDE918
:107ADC000CA6CDE90A4BDC693A4643462946A44636
:107AEC0001B0BDE8F04F60472DE9F04107460C4668
:107AFC0015461E46FFF76DFF48B9B86803689F69C5
:107B0C002A4633462146BC46BDE8F0416047BDE8F5
:107B1C00F081704700207047814208B50ED0406854
:107B2C0003782A2B0CD049680B782A2B08BF01311B
:107B3C0000F07CF8B0FA80F0400908BD0120FCE7A9
:107B4C000020FAE7002301461A46184600F094B8C4
:107B5C0010B501390244904201D1002005E00378B0
:107B6C0011F8014FA34201D0181B10BD0130F2E7F0
:107B7C000A44914200F1FF3300D1704710B511F85F
:107B8C00014B03F8014F9142F9D110BD884210B559
:107B9C0001EB020402D98442234607D8431EA142BA
:107BAC0008D011F8012B03F8012FF8E70244014625
:107BBC008A4200D110BD13F8014D02F8014DF7E7D0
:107BCC0002440346934200D1704703F8011BF9E7C6
:107BDC0038B5104B1D68AB6B0446B3B91820FCF7D5
:107BEC00F7FD0246A86320B90B4B0C484221FCF769
:107BFC0017FE0B490B4BC0E900130B4B83600B2397
:107C0C00838100210120C2E90401AB6B00221C61BD
:107C1C005A6138BD9CE40320FD820B0014830B00D9
:107C2C000E33CDAB34126DE6ECDE050010F8012BF3
:107C3C0011F8013B012A28BF9A42F7D0D01A70479D
:107C4C00034611F8012B03F8012B002AF9D17047D8
:107C5C00034613F8012B002AFBD1181A0138704780
:107C6C0010B5024601448A42134603D01C780132F7
:107C7C00002CF8D1181A10BD2DE9F843DFF8B880A4
:107C8C000646D8F800001F460D46914600F056F8FF
:107C9C00254B1C6834B9254C1C60254B13B11B6853
:107CAC00C4F8883063681F2B07DDD8F8000000F09B
:107CBC0047F84FF0FF30BDE8F8834EB3D4F8880096
:107CCC0088B91C4B23B9D8F8000000F038F8F0E75D
:107CDC004FF48470FCF77CFD0028F4D00023C0E93D
:107CEC004033C4F88800636840F8239001229A401E
:107CFC0000EB8301D0F800311343C0F80031022EA1
:107D0C00C1F8807002BFD0F804311343C0F80431BD
:107D1C006368D8F800005A1C0233626044F82350A0
:107D2C0000F00EF80020C6E7E8E703205CE703202C
:107D3C0000000000DD470B0000E503207047704792
:107D4C00704700001D400B0059400B0081400B0098
:107D5C0085400B0000000000726563656976652044
:107D6C00646174612066726F6D2025733A20004641
:107D7C006F756E642025642064657669636528736D
:107D8C0029206578706F73696E67207365727669E8
:107D9C00636520257300446576696365202573202F
:107DAC006164766572746973657320253034583A52
:107DBC002025750036303537666661652D39656668
:107DCC00642D313165632D623930392D30323432C6
:107DDC006163313230303032003630353830333345
:107DEC00632D396566642D313165632D6239303907
:107DFC002D30323432616331323030303200363033
:107E0C003538303534652D396566642D313165630F
:107E1C002D623930392D30323432616331323030A9
:107E2C00303200000000000000000000AB480B00E6
:107E3C00A1480B0097480B008D480B0081480B00A4
:107E4C0075480B007D770B0085770B0069480B009C
:107E5C0061480B0057480B004D480B00B5770B00E1
:107E6C00417373657274696F6E4661696C75726586
:107E7C002066616C736500776972696E672E626C3F
:107E8C006500537461727420646973636F766572F4
:107E9C00696E672073657276696365732E00417332
:107EAC0073657274696F6E4661696C757265206872
:107EBC00616C5F626C655F737461636B5F696E6943
:107ECC0074286E756C6C70747229203D3D2053596A
:107EDC005354454D5F4552524F525F4E4F4E4500E5
:107EEC005065657220646576696365206973206DE1
:107EFC00697373696E6721004661696C65642074EF
:107F0C006F20616C6C6F63617465206D656D6F7251
:107F1C007921004661696C656420746F2061707012
:107F2C00656E6420706565722043656E7472616C59
:107F3C00206465766963652E00436F6E6E656374AD
:107F4C0065642062792043656E7472616C2064658F
:107F5C00766963652E00446973636F6E6E65637436
:107F6C0065642062792072656D6F74652064657636
:107F7C006963652E004661696C656420746F2061CD
:107F8C007070656E6420646973636F766572656486
:107F9C0020736572766963652E0053746172742068
:107FAC00646973636F766572696E6720636861726A
:107FBC006163746572697374696373206F6620738F
:107FCC006572766963653A2025732E0043616E6E87
:107FDC006F7420616464206E657720706565722013
:107FEC006465766963652E004E65772070657269ED
:107FFC0070686572616C20697320636F6E6E656367
:10800C007465642E00436861726163746572697390
:10801C0074696320646973636F76657265642E009E
:10802C00446973636F76657265642063686172611D
:10803C0063746572697374696327732068616E6415
:10804C006C6520697320696E76616C69642E0046DC
:10805C0061696C656420746F20617070656E64205A
:10806C00646973636F7665726564206368617261BD
:10807C006374657269737469632E000000000000FC
:10808C0000000000E54A0B00494B0B00D14C0B00E3
:10809C00734B0B00E94A0B000000000000000000CD
:1080AC00E14A0B00574B0B00E34A0B00794B0B00DA
:1080BC00094B0B000000000000000000DF4A0B0021
:1080CC00654B0B0019580B007F4B0B00294B0B0019
:1080DC000000000000000000000000000000FB3465
:1080EC009B5F8000008000100000000000006170A9
:1080FC00700025592D256D2D25645425483A254DA4
:10810C003A2553257A0061736374696D650000002C
:10811C0000000000000000003D740B002D740B00EB
:10812C002F740B00000000000000000023750B00F2
:10813C008B750B0061750B00B9710B0053750B003F
:10814C0025750B0035750B0085750B0045750B00FF
:10815C001D750B0000000000000000001D760B00D8
:10816C0089760B0061760B00B9710B0031760B0030
:10817C004D760B003F760B005B760B001F760B00E9
:10818C0023760B0000000000000000001F770B009E
:10819C0015770B000B770B00C1760B00FF760B00ED
:1081AC00F3760B007D770B0085770B00E7760B00E1
:1081BC00DF760B00D5760B00CB760B00B5770B007A
:1081CC0000000000000000003D770B0047770B001B
:1081DC0051770B005B770B0065770B0071770B0009
:1081EC007D770B0085770B008D770B0099770B0053
:1081FC00A1770B00AB770B00B5770B0000537431F4
:10820C00395F53705F6D616B655F73686172656434
:10821C005F7461670000000064820B0009820B0030
:10822C00C4820B0038820B00E8820B004E31305FA9
:10823C005F637878616269763131375F5F636C6157
:10824C0073735F747970655F696E666F45000000CB
:10825C00000000002C820B0079790B008D790B004B
:10826C00217B0B00217B0B00F7790B0039790B007C
:10827C00DF790B00A1790B006B790B00C4820B002A
:10828C0094820B002C820B004E31305F5F63787848
:10829C00616269763132305F5F73695F636C617301
:1082AC00735F747970655F696E666F4500000000DE
:1082BC000000000088820B00217A0B00357A0B003D
:1082CC00217B0B00217B0B00F7790B0039790B001C
:1082DC00F57A0B00817A0B00497A0B0064820B0053
:1082EC00F0820B00537439747970655F696E666F38
:1082FC00005245454E54206D616C6C6F6320737554
:10830C0063636565646564002F6D6E742F776F729F
:10831C006B73706163652F776F726B7370616365DC
:10832C002F4743432D31302D706970656C696E6534
:10833C002F6A656E6B696E732D4743432D31302D5B
:10834C00706970656C696E652D34385F323032300F
:10835C00313132345F313630363138303634312FBA
:10836C007372632F6E65776C69622F6E65776C69BB
:10837C00622F6C6962632F7374646C69622F726113
:10838C006E642E6300000000A1430B00B5480B0087
:10839C00C9480B00A9710B00C5720B00D5720B00FC
:1083AC00E9720B0029770B008D780B0000000000A0
:0483BC0000000000BD
:1083C000040000001400000003000000474E5500A8
:1083D000B122094B66B019E06141E6FD6541FFC27B
:0483E000E2F1CEB840
:0483E4000000000095
:1083E80012810B00A0E40320000000000000000040
:1083F8000000000000000000000000000000000075
:108408000000000000000000000000000000000064
:108418000000000000000000000000000000000054
:108428000000000000000000000000000000000044
:108438000000000000000000000000000000000034
:0C8448000000000000000000ECE7032032
:10845400FFFFFFFF00000102030405060708090AE5
:108464000B0C0D0E0F101112131415161718191AE0
:088474001B1C1D1E1F20280027
:04847C0078563412E8
:04000003B000401CED
:00000001FF
